{
  "contractName": "DocumentRegistry",
  "abi": [
    {
      "anonymous": false,
      "inputs": [
        {
          "indexed": true,
          "internalType": "address",
          "name": "owner",
          "type": "address"
        },
        {
          "indexed": false,
          "internalType": "string",
          "name": "documentId",
          "type": "string"
        },
        {
          "indexed": false,
          "internalType": "string",
          "name": "documentHash",
          "type": "string"
        },
        {
          "indexed": false,
          "internalType": "string",
          "name": "documentType",
          "type": "string"
        },
        {
          "indexed": false,
          "internalType": "uint256",
          "name": "timestamp",
          "type": "uint256"
        }
      ],
      "name": "DocumentRegistered",
      "type": "event"
    },
    {
      "anonymous": false,
      "inputs": [
        {
          "indexed": true,
          "internalType": "address",
          "name": "owner",
          "type": "address"
        },
        {
          "indexed": false,
          "internalType": "string",
          "name": "documentId",
          "type": "string"
        },
        {
          "indexed": false,
          "internalType": "bool",
          "name": "isValid",
          "type": "bool"
        },
        {
          "indexed": false,
          "internalType": "uint256",
          "name": "timestamp",
          "type": "uint256"
        }
      ],
      "name": "DocumentVerified",
      "type": "event"
    },
    {
      "inputs": [
        {
          "internalType": "string",
          "name": "_documentId",
          "type": "string"
        },
        {
          "internalType": "string",
          "name": "_documentHash",
          "type": "string"
        },
        {
          "internalType": "string",
          "name": "_documentType",
          "type": "string"
        }
      ],
      "name": "registerDocument",
      "outputs": [
        {
          "internalType": "bool",
          "name": "",
          "type": "bool"
        }
      ],
      "stateMutability": "nonpayable",
      "type": "function"
    },
    {
      "inputs": [
        {
          "internalType": "string",
          "name": "_documentId",
          "type": "string"
        },
        {
          "internalType": "string",
          "name": "_documentHash",
          "type": "string"
        }
      ],
      "name": "verifyDocument",
      "outputs": [
        {
          "internalType": "bool",
          "name": "",
          "type": "bool"
        }
      ],
      "stateMutability": "nonpayable",
      "type": "function"
    },
    {
      "inputs": [
        {
          "internalType": "address",
          "name": "_owner",
          "type": "address"
        },
        {
          "internalType": "string",
          "name": "_documentId",
          "type": "string"
        }
      ],
      "name": "getDocument",
      "outputs": [
        {
          "internalType": "string",
          "name": "documentHash",
          "type": "string"
        },
        {
          "internalType": "address",
          "name": "owner",
          "type": "address"
        },
        {
          "internalType": "uint256",
          "name": "timestamp",
          "type": "uint256"
        },
        {
          "internalType": "string",
          "name": "documentType",
          "type": "string"
        },
        {
          "internalType": "bool",
          "name": "exists",
          "type": "bool"
        }
      ],
      "stateMutability": "view",
      "type": "function",
      "constant": true
    },
    {
      "inputs": [
        {
          "internalType": "address",
          "name": "_owner",
          "type": "address"
        }
      ],
      "name": "getUserDocuments",
      "outputs": [
        {
          "internalType": "string[]",
          "name": "",
          "type": "string[]"
        }
      ],
      "stateMutability": "view",
      "type": "function",
      "constant": true
    },
    {
      "inputs": [
        {
          "internalType": "address",
          "name": "_owner",
          "type": "address"
        }
      ],
      "name": "getDocumentCount",
      "outputs": [
        {
          "internalType": "uint256",
          "name": "",
          "type": "uint256"
        }
      ],
      "stateMutability": "view",
      "type": "function",
      "constant": true
    }
  ],
  "bytecode": "0x608060405234801561001057600080fd5b506114b9806100206000396000f3fe608060405234801561001057600080fd5b50600436106100575760003560e01c806313a3d9a11461005c5780633b993fe01461008c57806390a4b162146100bc57806398294a77146100ec578063a4ca650b14610120575b600080fd5b61007660048036038101906100719190610abb565b610150565b6040516100839190610b7d565b60405180910390f35b6100a660048036038101906100a19190610bf6565b610408565b6040516100b39190610c3c565b60405180910390f35b6100d660048036038101906100d19190610bf6565b610454565b6040516100e39190610d98565b60405180910390f35b61010660048036038101906101019190610dba565b61056c565b604051610117959493929190610e6f565b60405180910390f35b61013a60048036038101906101359190610ed0565b6107aa565b6040516101479190610b7d565b60405180910390f35b60008060003373ffffffffffffffffffffffffffffffffffffffff1673ffffffffffffffffffffffffffffffffffffffff1681526020019081526020016000208460405161019e9190610f84565b908152602001604051809103902060040160009054906101000a900460ff16156101fd576040517f08c379a00000000000000000000000000000000000000000000000000000000081526004016101f490610fe7565b60405180910390fd5b6040518060a001604052808481526020013373ffffffffffffffffffffffffffffffffffffffff168152602001428152602001838152602001600115158152506000803373ffffffffffffffffffffffffffffffffffffffff1673ffffffffffffffffffffffffffffffffffffffff168152602001908152602001600020856040516102899190610f84565b908152602001604051809103902060008201518160000190816102ac9190611213565b5060208201518160010160006101000a81548173ffffffffffffffffffffffffffffffffffffffff021916908373ffffffffffffffffffffffffffffffffffffffff1602179055506040820151816002015560608201518160030190816103139190611213565b5060808201518160040160006101000a81548160ff021916908315150217905550905050600160003373ffffffffffffffffffffffffffffffffffffffff1673ffffffffffffffffffffffffffffffffffffffff168152602001908152602001600020849080600181540180825580915050600190039060005260206000200160009091909190915090816103a89190611213565b503373ffffffffffffffffffffffffffffffffffffffff167f04a09ece5dc431fccd06f5143d614fa2f11ee5439993e831182a190bb4172fad858585426040516103f594939291906112e5565b60405180910390a2600190509392505050565b6000600160008373ffffffffffffffffffffffffffffffffffffffff1673ffffffffffffffffffffffffffffffffffffffff168152602001908152602001600020805490509050919050565b6060600160008373ffffffffffffffffffffffffffffffffffffffff1673ffffffffffffffffffffffffffffffffffffffff168152602001908152602001600020805480602002602001604051908101604052809291908181526020016000905b828210156105615783829060005260206000200180546104d490611036565b80601f016020809104026020016040519081016040528092919081815260200182805461050090611036565b801561054d5780601f106105225761010080835404028352916020019161054d565b820191906000526020600020905b81548152906001019060200180831161053057829003601f168201915b5050505050815260200190600101906104b5565b505050509050919050565b606060008060606000806000808973ffffffffffffffffffffffffffffffffffffffff1673ffffffffffffffffffffffffffffffffffffffff168152602001908152602001600020876040516105c29190610f84565b90815260200160405180910390206040518060a00160405290816000820180546105eb90611036565b80601f016020809104026020016040519081016040528092919081815260200182805461061790611036565b80156106645780601f1061063957610100808354040283529160200191610664565b820191906000526020600020905b81548152906001019060200180831161064757829003601f168201915b505050505081526020016001820160009054906101000a900473ffffffffffffffffffffffffffffffffffffffff1673ffffffffffffffffffffffffffffffffffffffff1673ffffffffffffffffffffffffffffffffffffffff168152602001600282015481526020016003820180546106dd90611036565b80601f016020809104026020016040519081016040528092919081815260200182805461070990611036565b80156107565780601f1061072b57610100808354040283529160200191610756565b820191906000526020600020905b81548152906001019060200180831161073957829003601f168201915b505050505081526020016004820160009054906101000a900460ff16151515158152505090508060000151816020015182604001518360600151846080015195509550955095509550509295509295909350565b60008060003373ffffffffffffffffffffffffffffffffffffffff1673ffffffffffffffffffffffffffffffffffffffff168152602001908152602001600020836040516107f89190610f84565b908152602001604051809103902060040160009054906101000a900460ff16610856576040517f08c379a000000000000000000000000000000000000000000000000000000000815260040161084d9061138b565b60405180910390fd5b6000826040516020016108699190610f84565b604051602081830303815290604052805190602001206000803373ffffffffffffffffffffffffffffffffffffffff1673ffffffffffffffffffffffffffffffffffffffff168152602001908152602001600020856040516108cb9190610f84565b90815260200160405180910390206000016040516020016108ec919061142e565b604051602081830303815290604052805190602001201490503373ffffffffffffffffffffffffffffffffffffffff167feb485446165cd9cbdc8f9f660270f949d3d6e63f1a32ba21cb0d7b0f2ee6c1b485834260405161094f93929190611445565b60405180910390a28091505092915050565b6000604051905090565b600080fd5b600080fd5b600080fd5b600080fd5b6000601f19601f8301169050919050565b7f4e487b7100000000000000000000000000000000000000000000000000000000600052604160045260246000fd5b6109c88261097f565b810181811067ffffffffffffffff821117156109e7576109e6610990565b5b80604052505050565b60006109fa610961565b9050610a0682826109bf565b919050565b600067ffffffffffffffff821115610a2657610a25610990565b5b610a2f8261097f565b9050602081019050919050565b82818337600083830152505050565b6000610a5e610a5984610a0b565b6109f0565b905082815260208101848484011115610a7a57610a7961097a565b5b610a85848285610a3c565b509392505050565b600082601f830112610aa257610aa1610975565b5b8135610ab2848260208601610a4b565b91505092915050565b600080600060608486031215610ad457610ad361096b565b5b600084013567ffffffffffffffff811115610af257610af1610970565b5b610afe86828701610a8d565b935050602084013567ffffffffffffffff811115610b1f57610b1e610970565b5b610b2b86828701610a8d565b925050604084013567ffffffffffffffff811115610b4c57610b4b610970565b5b610b5886828701610a8d565b9150509250925092565b60008115159050919050565b610b7781610b62565b82525050565b6000602082019050610b926000830184610b6e565b92915050565b600073ffffffffffffffffffffffffffffffffffffffff82169050919050565b6000610bc382610b98565b9050919050565b610bd381610bb8565b8114610bde57600080fd5b50565b600081359050610bf081610bca565b92915050565b600060208284031215610c0c57610c0b61096b565b5b6000610c1a84828501610be1565b91505092915050565b6000819050919050565b610c3681610c23565b82525050565b6000602082019050610c516000830184610c2d565b92915050565b600081519050919050565b600082825260208201905092915050565b6000819050602082019050919050565b600081519050919050565b600082825260208201905092915050565b60005b83811015610cbd578082015181840152602081019050610ca2565b60008484015250505050565b6000610cd482610c83565b610cde8185610c8e565b9350610cee818560208601610c9f565b610cf78161097f565b840191505092915050565b6000610d0e8383610cc9565b905092915050565b6000602082019050919050565b6000610d2e82610c57565b610d388185610c62565b935083602082028501610d4a85610c73565b8060005b85811015610d865784840389528151610d678582610d02565b9450610d7283610d16565b925060208a01995050600181019050610d4e565b50829750879550505050505092915050565b60006020820190508181036000830152610db28184610d23565b905092915050565b60008060408385031215610dd157610dd061096b565b5b6000610ddf85828601610be1565b925050602083013567ffffffffffffffff811115610e0057610dff610970565b5b610e0c85828601610a8d565b9150509250929050565b600082825260208201905092915050565b6000610e3282610c83565b610e3c8185610e16565b9350610e4c818560208601610c9f565b610e558161097f565b840191505092915050565b610e6981610bb8565b82525050565b600060a0820190508181036000830152610e898188610e27565b9050610e986020830187610e60565b610ea56040830186610c2d565b8181036060830152610eb78185610e27565b9050610ec66080830184610b6e565b9695505050505050565b60008060408385031215610ee757610ee661096b565b5b600083013567ffffffffffffffff811115610f0557610f04610970565b5b610f1185828601610a8d565b925050602083013567ffffffffffffffff811115610f3257610f31610970565b5b610f3e85828601610a8d565b9150509250929050565b600081905092915050565b6000610f5e82610c83565b610f688185610f48565b9350610f78818560208601610c9f565b80840191505092915050565b6000610f908284610f53565b915081905092915050565b7f446f63756d656e7420616c726561647920726567697374657265640000000000600082015250565b6000610fd1601b83610e16565b9150610fdc82610f9b565b602082019050919050565b6000602082019050818103600083015261100081610fc4565b9050919050565b7f4e487b7100000000000000000000000000000000000000000000000000000000600052602260045260246000fd5b6000600282049050600182168061104e57607f821691505b60208210810361106157611060611007565b5b50919050565b60008190508160005260206000209050919050565b60006020601f8301049050919050565b600082821b905092915050565b6000600883026110c97fffffffffffffffffffffffffffffffffffffffffffffffffffffffffffffffff8261108c565b6110d3868361108c565b95508019841693508086168417925050509392505050565b6000819050919050565b600061111061110b61110684610c23565b6110eb565b610c23565b9050919050565b6000819050919050565b61112a836110f5565b61113e61113682611117565b848454611099565b825550505050565b600090565b611153611146565b61115e818484611121565b505050565b5b818110156111825761117760008261114b565b600181019050611164565b5050565b601f8211156111c75761119881611067565b6111a18461107c565b810160208510156111b0578190505b6111c46111bc8561107c565b830182611163565b50505b505050565b600082821c905092915050565b60006111ea600019846008026111cc565b1980831691505092915050565b600061120383836111d9565b9150826002028217905092915050565b61121c82610c83565b67ffffffffffffffff81111561123557611234610990565b5b61123f8254611036565b61124a828285611186565b600060209050601f83116001811461127d576000841561126b578287015190505b61127585826111f7565b8655506112dd565b601f19841661128b86611067565b60005b828110156112b35784890151825560018201915060208501945060208101905061128e565b868310156112d057848901516112cc601f8916826111d9565b8355505b6001600288020188555050505b505050505050565b600060808201905081810360008301526112ff8187610e27565b905081810360208301526113138186610e27565b905081810360408301526113278185610e27565b90506113366060830184610c2d565b95945050505050565b7f446f63756d656e74206e6f7420666f756e640000000000000000000000000000600082015250565b6000611375601283610e16565b91506113808261133f565b602082019050919050565b600060208201905081810360008301526113a481611368565b9050919050565b600081546113b881611036565b6113c28186610f48565b945060018216600081146113dd57600181146113f257611425565b60ff1983168652811515820286019350611425565b6113fb85611067565b60005b8381101561141d578154818901526001820191506020810190506113fe565b838801955050505b50505092915050565b600061143a82846113ab565b915081905092915050565b6000606082019050818103600083015261145f8186610e27565b905061146e6020830185610b6e565b61147b6040830184610c2d565b94935050505056fea264697066735822122032d094660c8665dd989ee25b349106e0a7ecf665ba0aa34a9f16165f7a04708e64736f6c63430008130033",
  "immutableReferences": {},
  "source": "// SPDX-License-Identifier: MIT\r\npragma solidity ^0.8.19;\r\n\r\n/**\r\n * @title DocumentRegistry\r\n * @dev Smart contract for storing document hashes on blockchain\r\n * \r\n * BLOCKCHAIN BASICS:\r\n * - This contract runs on the Ethereum blockchain (Ganache in our case)\r\n * - Once data is written, it CANNOT be changed or deleted (immutable)\r\n * - Every transaction costs \"gas\" (fake ETH on Ganache)\r\n * - Anyone can read data, but only authorized users can write\r\n */\r\n\r\ncontract DocumentRegistry {\r\n    \r\n    // STRUCT: A custom data type (like a class in Python)\r\n    struct Document {\r\n        string documentHash;      // SHA-256 hash of the document\r\n        address owner;            // Ethereum address of document owner\r\n        uint256 timestamp;        // When document was registered\r\n        string documentType;      // Type of document (e.g., \"KYC_ID\", \"KYC_ADDRESS\")\r\n        bool exists;              // Flag to check if document exists\r\n    }\r\n    \r\n    // MAPPING: Like a Python dictionary {key: value}\r\n    // Maps: user_address => (document_id => Document)\r\n    mapping(address => mapping(string => Document)) private documents;\r\n    \r\n    // Array to store all document IDs for a user\r\n    mapping(address => string[]) private userDocumentIds;\r\n    \r\n    // EVENT: Broadcasts when something happens (like signals in Django)\r\n    event DocumentRegistered(\r\n        address indexed owner,\r\n        string documentId,\r\n        string documentHash,\r\n        string documentType,\r\n        uint256 timestamp\r\n    );\r\n    \r\n    event DocumentVerified(\r\n        address indexed owner,\r\n        string documentId,\r\n        bool isValid,\r\n        uint256 timestamp\r\n    );\r\n    \r\n    /**\r\n     * @dev Register a new document hash\r\n     * @param _documentId Unique identifier for the document\r\n     * @param _documentHash SHA-256 hash of the document\r\n     * @param _documentType Type of document being registered\r\n     */\r\n    function registerDocument(\r\n        string memory _documentId,\r\n        string memory _documentHash,\r\n        string memory _documentType\r\n    ) public returns (bool) {\r\n        \r\n        // Check if document already exists\r\n        require(\r\n            !documents[msg.sender][_documentId].exists,\r\n            \"Document already registered\"\r\n        );\r\n        \r\n        // Create new document record\r\n        documents[msg.sender][_documentId] = Document({\r\n            documentHash: _documentHash,\r\n            owner: msg.sender,\r\n            timestamp: block.timestamp,\r\n            documentType: _documentType,\r\n            exists: true\r\n        });\r\n        \r\n        // Add to user's document list\r\n        userDocumentIds[msg.sender].push(_documentId);\r\n        \r\n        // Emit event (this can be listened to by Django)\r\n        emit DocumentRegistered(\r\n            msg.sender,\r\n            _documentId,\r\n            _documentHash,\r\n            _documentType,\r\n            block.timestamp\r\n        );\r\n        \r\n        return true;\r\n    }\r\n    \r\n    /**\r\n     * @dev Verify if a document hash matches what's stored\r\n     * @param _documentId Document identifier\r\n     * @param _documentHash Hash to verify\r\n     */\r\n    function verifyDocument(\r\n        string memory _documentId,\r\n        string memory _documentHash\r\n    ) public returns (bool) {\r\n        \r\n        // Check if document exists\r\n        require(\r\n            documents[msg.sender][_documentId].exists,\r\n            \"Document not found\"\r\n        );\r\n        \r\n        // Compare stored hash with provided hash\r\n        bool isValid = keccak256(\r\n            abi.encodePacked(documents[msg.sender][_documentId].documentHash)\r\n        ) == keccak256(abi.encodePacked(_documentHash));\r\n        \r\n        // Emit verification event\r\n        emit DocumentVerified(\r\n            msg.sender,\r\n            _documentId,\r\n            isValid,\r\n            block.timestamp\r\n        );\r\n        \r\n        return isValid;\r\n    }\r\n    \r\n    /**\r\n     * @dev Get document details\r\n     * @param _owner Address of document owner\r\n     * @param _documentId Document identifier\r\n     */\r\n    function getDocument(\r\n        address _owner,\r\n        string memory _documentId\r\n    ) public view returns (\r\n        string memory documentHash,\r\n        address owner,\r\n        uint256 timestamp,\r\n        string memory documentType,\r\n        bool exists\r\n    ) {\r\n        Document memory doc = documents[_owner][_documentId];\r\n        return (\r\n            doc.documentHash,\r\n            doc.owner,\r\n            doc.timestamp,\r\n            doc.documentType,\r\n            doc.exists\r\n        );\r\n    }\r\n    \r\n    /**\r\n     * @dev Get all document IDs for a user\r\n     * @param _owner Address of document owner\r\n     */\r\n    function getUserDocuments(\r\n        address _owner\r\n    ) public view returns (string[] memory) {\r\n        return userDocumentIds[_owner];\r\n    }\r\n    \r\n    /**\r\n     * @dev Get total number of documents for a user\r\n     * @param _owner Address of document owner\r\n     */\r\n    function getDocumentCount(\r\n        address _owner\r\n    ) public view returns (uint256) {\r\n        return userDocumentIds[_owner].length;\r\n    }\r\n}",
  "sourcePath": "C:\\Users\\PoruN\\Desktop\\LifeXBackend\\lifex\\blockchain_project\\contracts\\DocumentRegistry.sol",
  "compiler": {
    "name": "solc",
    "version": "0.8.19+commit.7dd6d404.Emscripten.clang"
  },
  "schemaVersion": "3.4.16",
  "updatedAt": "2026-02-02T10:05:18.633Z",
  "networkType": "ethereum",
  "devdoc": {
    "details": "Smart contract for storing document hashes on blockchain  BLOCKCHAIN BASICS: - This contract runs on the Ethereum blockchain (Ganache in our case) - Once data is written, it CANNOT be changed or deleted (immutable) - Every transaction costs \"gas\" (fake ETH on Ganache) - Anyone can read data, but only authorized users can write",
    "kind": "dev",
    "methods": {
      "getDocument(address,string)": {
        "details": "Get document details",
        "params": {
          "_documentId": "Document identifier",
          "_owner": "Address of document owner"
        }
      },
      "getDocumentCount(address)": {
        "details": "Get total number of documents for a user",
        "params": {
          "_owner": "Address of document owner"
        }
      },
      "getUserDocuments(address)": {
        "details": "Get all document IDs for a user",
        "params": {
          "_owner": "Address of document owner"
        }
      },
      "registerDocument(string,string,string)": {
        "details": "Register a new document hash",
        "params": {
          "_documentHash": "SHA-256 hash of the document",
          "_documentId": "Unique identifier for the document",
          "_documentType": "Type of document being registered"
        }
      },
      "verifyDocument(string,string)": {
        "details": "Verify if a document hash matches what's stored",
        "params": {
          "_documentHash": "Hash to verify",
          "_documentId": "Document identifier"
        }
      }
    },
    "title": "DocumentRegistry",
    "version": 1
  },
  "userdoc": {
    "kind": "user",
    "methods": {},
    "version": 1
  }
}